{
  "contractName": "Master",
  "abi": [
    {
      "inputs": [
        {
          "name": "_numHashes",
          "type": "uint8"
        }
      ],
      "payable": false,
      "stateMutability": "nonpayable",
      "type": "constructor"
    },
    {
      "constant": false,
      "inputs": [
        {
          "name": "toDevice",
          "type": "address"
        }
      ],
      "name": "addDevice",
      "outputs": [],
      "payable": false,
      "stateMutability": "nonpayable",
      "type": "function"
    },
    {
      "constant": false,
      "inputs": [
        {
          "name": "newIPFS_Hash",
          "type": "string"
        }
      ],
      "name": "submit",
      "outputs": [],
      "payable": false,
      "stateMutability": "nonpayable",
      "type": "function"
    }
  ],
  "bytecode": "0x608060405234801561001057600080fd5b506040516020806104aa83398101806040528101908080519060200190929190505050336000806101000a81548173ffffffffffffffffffffffffffffffffffffffff021916908373ffffffffffffffffffffffffffffffffffffffff1602179055508060ff166002816100849190610093565b5060006003819055505061015b565b8154818355818111156100ba578183600052602060002091820191016100b991906100bf565b5b505050565b6100eb91905b808211156100e757600080820160006100de91906100ee565b506001016100c5565b5090565b90565b50805460018160011615610100020316600290046000825580601f106101145750610133565b601f0160209004906000526020600020908101906101329190610136565b5b50565b61015891905b8082111561015457600081600090555060010161013c565b5090565b90565b6103408061016a6000396000f30060806040526004361061004c576000357c0100000000000000000000000000000000000000000000000000000000900463ffffffff168063b111cb8414610051578063d99a8dc314610094575b600080fd5b34801561005d57600080fd5b50610092600480360381019080803573ffffffffffffffffffffffffffffffffffffffff1690602001909291905050506100fd565b005b3480156100a057600080fd5b506100fb600480360381019080803590602001908201803590602001908080601f01602080910402602001604051908101604052809392919081815260200183838082843782019150505050505091929192905050506101b6565b005b6000809054906101000a900473ffffffffffffffffffffffffffffffffffffffff1673ffffffffffffffffffffffffffffffffffffffff163373ffffffffffffffffffffffffffffffffffffffff16141515610158576101b3565b60018060008373ffffffffffffffffffffffffffffffffffffffff1673ffffffffffffffffffffffffffffffffffffffff16815260200190815260200160002060010160006101000a81548160ff0219169083151502179055505b50565b600160003373ffffffffffffffffffffffffffffffffffffffff1673ffffffffffffffffffffffffffffffffffffffff16815260200190815260200160002060010160009054906101000a900460ff16158061021c575060016002805490500360035410155b156102265761026c565b80600260035481548110151561023857fe5b90600052602060002001600001908051906020019061025892919061026f565b506003600081548092919060010191905055505b50565b828054600181600116156101000203166002900490600052602060002090601f016020900481019282601f106102b057805160ff19168380011785556102de565b828001600101855582156102de579182015b828111156102dd5782518255916020019190600101906102c2565b5b5090506102eb91906102ef565b5090565b61031191905b8082111561030d5760008160009055506001016102f5565b5090565b905600a165627a7a7230582057977d8e5261e088e280ab23b7148caea26d2258063f00f916b04b9b7b9594f80029",
  "source": "pragma solidity ^0.4.0;\ncontract Master {\n\n    struct Device {\n        string name;\n        bool permissioned;\n//meta data\n    }\n    struct IPFS_Hash {\n        string ipfs_hash;\n    }\n\n    address auditor;\n    mapping(address => Device) devices;\n    IPFS_Hash[] ipfs_hashes;\n    uint index;\n\n    /// Create a new Master and auditor with $(_numProposals) different ipfs_hashes.\n    constructor(uint8 _numHashes) public {\n        auditor = msg.sender;\n        ipfs_hashes.length = _numHashes;\n        index = 0;\n    }\n\n    /// Give $(toDevice) the right to add data on this contract\n    /// May only be called by $(auditor).\n    function addDevice(address toDevice) public {\n        if (msg.sender != auditor) return;\n        devices[toDevice].permissioned = true;\n    }\n\n\n    /// Give a submit a IPFS_Hash $(to).\n    function submit(string newIPFS_Hash) public {\n        if(!devices[msg.sender].permissioned || index >= ipfs_hashes.length-1) return;\n        ipfs_hashes[index].ipfs_hash = newIPFS_Hash;\n        index++;\n    }\n    \n}\n\n",
  "sourcePath": "/home/dan/wyo/Master/contracts/Master.sol",
  "compiler": {
    "name": "solc",
    "version": "0.4.24+commit.e67f0147.Emscripten.clang"
  },
  "schemaVersion": "2.0.1",
  "updatedAt": "2018-09-08T15:28:22.435Z"
}