{
  "contractName": "Master",
  "abi": [
    {
      "constant": true,
      "inputs": [],
      "name": "auditor",
      "outputs": [
        {
          "name": "",
          "type": "address"
        }
      ],
      "payable": false,
      "stateMutability": "view",
      "type": "function"
    },
    {
      "inputs": [
        {
          "name": "_maxHashes",
          "type": "uint8"
        }
      ],
      "payable": false,
      "stateMutability": "nonpayable",
      "type": "constructor"
    },
    {
      "constant": false,
      "inputs": [
        {
          "name": "toDevice",
          "type": "address"
        }
      ],
      "name": "addDevice",
      "outputs": [
        {
          "name": "",
          "type": "bool"
        }
      ],
      "payable": false,
      "stateMutability": "nonpayable",
      "type": "function"
    },
    {
      "constant": false,
      "inputs": [
        {
          "name": "newIPFS_Hash",
          "type": "string"
        }
      ],
      "name": "submitHash",
      "outputs": [
        {
          "name": "",
          "type": "bool"
        }
      ],
      "payable": false,
      "stateMutability": "nonpayable",
      "type": "function"
    },
    {
      "constant": false,
      "inputs": [
        {
          "name": "index_",
          "type": "uint8"
        }
      ],
      "name": "getHash",
      "outputs": [
        {
          "name": "",
          "type": "string"
        }
      ],
      "payable": false,
      "stateMutability": "nonpayable",
      "type": "function"
    },
    {
      "constant": false,
      "inputs": [
        {
          "name": "index_",
          "type": "uint8"
        }
      ],
      "name": "signAudit",
      "outputs": [
        {
          "name": "",
          "type": "bool"
        }
      ],
      "payable": false,
      "stateMutability": "nonpayable",
      "type": "function"
    }
  ],
  "bytecode": "0x608060405234801561001057600080fd5b5060405160208061086483398101806040528101908080519060200190929190505050336000806101000a81548173ffffffffffffffffffffffffffffffffffffffff021916908373ffffffffffffffffffffffffffffffffffffffff1602179055508060ff1660028161008491906100ed565b5060018060003373ffffffffffffffffffffffffffffffffffffffff1673ffffffffffffffffffffffffffffffffffffffff16815260200190815260200160002060010160006101000a81548160ff0219169083151502179055506000600381905550506101cf565b81548183558181111561011a57600202816002028360005260206000209182019101610119919061011f565b5b505050565b61015f91905b8082111561015b576000808201600061013e9190610162565b6001820160006101000a81549060ff021916905550600201610125565b5090565b90565b50805460018160011615610100020316600290046000825580601f1061018857506101a7565b601f0160209004906000526020600020908101906101a691906101aa565b5b50565b6101cc91905b808211156101c85760008160009055506001016101b0565b5090565b90565b610686806101de6000396000f30060806040526004361061006d576000357c0100000000000000000000000000000000000000000000000000000000900463ffffffff1680632ffc3214146100725780633ec045a6146100ba578063b111cb8414610111578063e11d57ab1461016c578063fb94bec114610215575b600080fd5b34801561007e57600080fd5b506100a0600480360381019080803560ff169060200190929190505050610296565b604051808215151515815260200191505060405180910390f35b3480156100c657600080fd5b506100cf61033d565b604051808273ffffffffffffffffffffffffffffffffffffffff1673ffffffffffffffffffffffffffffffffffffffff16815260200191505060405180910390f35b34801561011d57600080fd5b50610152600480360381019080803573ffffffffffffffffffffffffffffffffffffffff169060200190929190505050610362565b604051808215151515815260200191505060405180910390f35b34801561017857600080fd5b5061019a600480360381019080803560ff169060200190929190505050610427565b6040518080602001828103825283818151815260200191508051906020019080838360005b838110156101da5780820151818401526020810190506101bf565b50505050905090810190601f1680156102075780820380516001836020036101000a031916815260200191505b509250505060405180910390f35b34801561022157600080fd5b5061027c600480360381019080803590602001908201803590602001908080601f01602080910402602001604051908101604052809392919081815260200183838082843782019150505050505091929192905050506104ec565b604051808215151515815260200191505060405180910390f35b60008060009054906101000a900473ffffffffffffffffffffffffffffffffffffffff1673ffffffffffffffffffffffffffffffffffffffff163373ffffffffffffffffffffffffffffffffffffffff161415156102f75760009050610338565b600160028360ff1681548110151561030b57fe5b906000526020600020906002020160010160006101000a81548160ff021916908315150217905550600190505b919050565b6000809054906101000a900473ffffffffffffffffffffffffffffffffffffffff1681565b60008060009054906101000a900473ffffffffffffffffffffffffffffffffffffffff1673ffffffffffffffffffffffffffffffffffffffff163373ffffffffffffffffffffffffffffffffffffffff161415156103c35760009050610422565b60018060008473ffffffffffffffffffffffffffffffffffffffff1673ffffffffffffffffffffffffffffffffffffffff16815260200190815260200160002060010160006101000a81548160ff021916908315150217905550600190505b919050565b606060028260ff1681548110151561043b57fe5b90600052602060002090600202016000018054600181600116156101000203166002900480601f0160208091040260200160405190810160405280929190818152602001828054600181600116156101000203166002900480156104e05780601f106104b5576101008083540402835291602001916104e0565b820191906000526020600020905b8154815290600101906020018083116104c357829003601f168201915b50505050509050919050565b6000600160003373ffffffffffffffffffffffffffffffffffffffff1673ffffffffffffffffffffffffffffffffffffffff16815260200190815260200160002060010160009054906101000a900460ff161580610554575060016002805490500360035410155b1561056257600090506105b0565b81600260035481548110151561057457fe5b906000526020600020906002020160000190805190602001906105989291906105b5565b50600360008154809291906001019190505550600190505b919050565b828054600181600116156101000203166002900490600052602060002090601f016020900481019282601f106105f657805160ff1916838001178555610624565b82800160010185558215610624579182015b82811115610623578251825591602001919060010190610608565b5b5090506106319190610635565b5090565b61065791905b8082111561065357600081600090555060010161063b565b5090565b905600a165627a7a72305820e2700ac724d18524f2c5d03c29813d9b87efbaa81283a4ca39500c7ea09e63fc0029",
  "source": "pragma solidity ^0.4.0;\ncontract Master {\n\n    struct Device {\n        string name;\n        bool permissioned;\n        // last TX hash?\n        //more meta data\n    }\n    struct IPFS_Hash {\n        string ipfs_hash;\n        bool auditor_signed; //\n    }\n\n    // need a store of the last *transaction* that a device successfully submitted - so you get a list you can scan back in the contrac twith latest -> latest -1 -> ... original.\n\n    address public auditor;\n    mapping(address => Device) private devices;\n    IPFS_Hash[] ipfs_hashes;\n    uint hash_index;\n\n    /// Create a new Master and auditor with $(_maxHashes) different ipfs_hashes.\n    constructor(uint8 _maxHashes) public {\n        auditor = msg.sender;\n        ipfs_hashes.length = _maxHashes;\n        devices[msg.sender].permissioned = true;\n        hash_index = 0;\n    }\n\n    /// Give $(toDevice) the right to add data on this contract\n    /// May only be called by $(auditor).\n    function addDevice(address toDevice) public returns(bool){\n        if (msg.sender != auditor) return false;\n        devices[toDevice].permissioned = true;\n        return true;\n    }\n\n\n    /// Submit an IPFS_Hash\n    function submitHash(string newIPFS_Hash) public returns(bool){\n        if(!devices[msg.sender].permissioned || hash_index >= ipfs_hashes.length-1) return false;\n        ipfs_hashes[hash_index].ipfs_hash = newIPFS_Hash;\n        hash_index++;\n        return true;\n    }\n\n    /// Get a submited IPFS_Hash\n    function getHash(uint8 index_) public returns(string){\n        return ipfs_hashes[index_].ipfs_hash;\n    }\n\n    /// Sign-off on event as a known auditor\n    function signAudit(uint8 index_) public returns(bool){\n      if(msg.sender != auditor) return false;\n        ipfs_hashes[index_].auditor_signed = true;\n        return true;\n    }\n}\n",
  "sourcePath": "/home/dan/wyo/Master/contracts/Master.sol",
  "compiler": {
    "name": "solc",
    "version": "0.4.24+commit.e67f0147.Emscripten.clang"
  },
  "schemaVersion": "2.0.1",
  "updatedAt": "2018-09-08T23:56:42.805Z"
}