{
  "contractName": "Master",
  "abi": [
    {
      "constant": true,
      "inputs": [],
      "name": "auditor",
      "outputs": [
        {
          "name": "",
          "type": "address"
        }
      ],
      "payable": false,
      "stateMutability": "view",
      "type": "function"
    },
    {
      "inputs": [
        {
          "name": "_numHashes",
          "type": "uint8"
        }
      ],
      "payable": false,
      "stateMutability": "nonpayable",
      "type": "constructor"
    },
    {
      "constant": false,
      "inputs": [
        {
          "name": "toDevice",
          "type": "address"
        }
      ],
      "name": "addDevice",
      "outputs": [],
      "payable": false,
      "stateMutability": "nonpayable",
      "type": "function"
    },
    {
      "constant": false,
      "inputs": [
        {
          "name": "newIPFS_Hash",
          "type": "string"
        }
      ],
      "name": "submit",
      "outputs": [],
      "payable": false,
      "stateMutability": "nonpayable",
      "type": "function"
    }
  ],
  "bytecode": "0x608060405234801561001057600080fd5b5060405160208061053183398101806040528101908080519060200190929190505050336000806101000a81548173ffffffffffffffffffffffffffffffffffffffff021916908373ffffffffffffffffffffffffffffffffffffffff1602179055508060ff166002816100849190610093565b5060006003819055505061015b565b8154818355818111156100ba578183600052602060002091820191016100b991906100bf565b5b505050565b6100eb91905b808211156100e757600080820160006100de91906100ee565b506001016100c5565b5090565b90565b50805460018160011615610100020316600290046000825580601f106101145750610133565b601f0160209004906000526020600020908101906101329190610136565b5b50565b61015891905b8082111561015457600081600090555060010161013c565b5090565b90565b6103c78061016a6000396000f300608060405260043610610057576000357c0100000000000000000000000000000000000000000000000000000000900463ffffffff1680633ec045a61461005c578063b111cb84146100b3578063d99a8dc3146100f6575b600080fd5b34801561006857600080fd5b5061007161015f565b604051808273ffffffffffffffffffffffffffffffffffffffff1673ffffffffffffffffffffffffffffffffffffffff16815260200191505060405180910390f35b3480156100bf57600080fd5b506100f4600480360381019080803573ffffffffffffffffffffffffffffffffffffffff169060200190929190505050610184565b005b34801561010257600080fd5b5061015d600480360381019080803590602001908201803590602001908080601f016020809104026020016040519081016040528093929190818152602001838380828437820191505050505050919291929050505061023d565b005b6000809054906101000a900473ffffffffffffffffffffffffffffffffffffffff1681565b6000809054906101000a900473ffffffffffffffffffffffffffffffffffffffff1673ffffffffffffffffffffffffffffffffffffffff163373ffffffffffffffffffffffffffffffffffffffff161415156101df5761023a565b60018060008373ffffffffffffffffffffffffffffffffffffffff1673ffffffffffffffffffffffffffffffffffffffff16815260200190815260200160002060010160006101000a81548160ff0219169083151502179055505b50565b600160003373ffffffffffffffffffffffffffffffffffffffff1673ffffffffffffffffffffffffffffffffffffffff16815260200190815260200160002060010160009054906101000a900460ff1615806102a3575060016002805490500360035410155b156102ad576102f3565b8060026003548154811015156102bf57fe5b9060005260206000200160000190805190602001906102df9291906102f6565b506003600081548092919060010191905055505b50565b828054600181600116156101000203166002900490600052602060002090601f016020900481019282601f1061033757805160ff1916838001178555610365565b82800160010185558215610365579182015b82811115610364578251825591602001919060010190610349565b5b5090506103729190610376565b5090565b61039891905b8082111561039457600081600090555060010161037c565b5090565b905600a165627a7a723058207441ad8625e6e455414f7edeccb6003b38e4c2d2061d6c04ba5ba7a8eb20a3410029",
  "source": "pragma solidity ^0.4.0;\ncontract Master {\n\n    struct Device {\n        string name;\n        bool permissioned;\n//meta data\n    }\n    struct IPFS_Hash {\n        string ipfs_hash;\n    }\n\n    address public auditor;\n    mapping(address => Device) devices;\n    IPFS_Hash[] ipfs_hashes;\n    uint index;\n\n    /// Create a new Master and auditor with $(_numProposals) different ipfs_hashes.\n    constructor(uint8 _numHashes) public {\n        auditor = msg.sender;\n        ipfs_hashes.length = _numHashes;\n        index = 0;\n    }\n\n    /// Give $(toDevice) the right to add data on this contract\n    /// May only be called by $(auditor).\n    function addDevice(address toDevice) public {\n        if (msg.sender != auditor) return;\n        devices[toDevice].permissioned = true;\n    }\n\n\n    /// Give a submit a IPFS_Hash $(to).\n    function submit(string newIPFS_Hash) public {\n        if(!devices[msg.sender].permissioned || index >= ipfs_hashes.length-1) return;\n        ipfs_hashes[index].ipfs_hash = newIPFS_Hash;\n        index++;\n    }\n\n}\n",
  "sourcePath": "/home/dan/wyo/Master/contracts/Master.sol",
  "compiler": {
    "name": "solc",
    "version": "0.4.24+commit.e67f0147.Emscripten.clang"
  },
  "schemaVersion": "2.0.1",
  "updatedAt": "2018-09-08T16:50:20.016Z"
}